{
  "_format": "hh-sol-artifact-1",
  "contractName": "Raffle",
  "sourceName": "contracts/Raffle.sol",
  "abi": [
    {
      "inputs": [
        {
          "internalType": "address",
          "name": "vrfCoordinatorV2",
          "type": "address"
        },
        {
          "internalType": "uint256",
          "name": "entranceFee",
          "type": "uint256"
        },
        {
          "internalType": "bytes32",
          "name": "gasLane",
          "type": "bytes32"
        },
        {
          "internalType": "uint64",
          "name": "subscriptionId",
          "type": "uint64"
        },
        {
          "internalType": "uint32",
          "name": "callbackGasLimit",
          "type": "uint32"
        },
        {
          "internalType": "uint256",
          "name": "interval",
          "type": "uint256"
        }
      ],
      "stateMutability": "nonpayable",
      "type": "constructor"
    },
    {
      "inputs": [
        {
          "internalType": "address",
          "name": "have",
          "type": "address"
        },
        {
          "internalType": "address",
          "name": "want",
          "type": "address"
        }
      ],
      "name": "OnlyCoordinatorCanFulfill",
      "type": "error"
    },
    {
      "inputs": [],
      "name": "Raffle_NotEnoughETHEntered",
      "type": "error"
    },
    {
      "inputs": [
        {
          "internalType": "uint256",
          "name": "currentBalance",
          "type": "uint256"
        },
        {
          "internalType": "uint256",
          "name": "numPlayers",
          "type": "uint256"
        },
        {
          "internalType": "uint256",
          "name": "raffleState",
          "type": "uint256"
        }
      ],
      "name": "Raffle_UpkeepNotNeeded",
      "type": "error"
    },
    {
      "inputs": [],
      "name": "Raffle__NotOpen",
      "type": "error"
    },
    {
      "inputs": [],
      "name": "Raffle__TransferFailed",
      "type": "error"
    },
    {
      "anonymous": false,
      "inputs": [
        {
          "indexed": true,
          "internalType": "address",
          "name": "player",
          "type": "address"
        }
      ],
      "name": "RaffleEnter",
      "type": "event"
    },
    {
      "anonymous": false,
      "inputs": [
        {
          "indexed": true,
          "internalType": "uint256",
          "name": "requestId",
          "type": "uint256"
        }
      ],
      "name": "RequestedRaffleWinner",
      "type": "event"
    },
    {
      "anonymous": false,
      "inputs": [
        {
          "indexed": true,
          "internalType": "address",
          "name": "winner",
          "type": "address"
        }
      ],
      "name": "WinnerPicked",
      "type": "event"
    },
    {
      "inputs": [
        {
          "internalType": "bytes",
          "name": "",
          "type": "bytes"
        }
      ],
      "name": "checkUpkeep",
      "outputs": [
        {
          "internalType": "bool",
          "name": "upkeepNeeded",
          "type": "bool"
        },
        {
          "internalType": "bytes",
          "name": "",
          "type": "bytes"
        }
      ],
      "stateMutability": "nonpayable",
      "type": "function"
    },
    {
      "inputs": [],
      "name": "enterRaffle",
      "outputs": [],
      "stateMutability": "payable",
      "type": "function"
    },
    {
      "inputs": [],
      "name": "getEntranceFee",
      "outputs": [
        {
          "internalType": "uint256",
          "name": "",
          "type": "uint256"
        }
      ],
      "stateMutability": "view",
      "type": "function"
    },
    {
      "inputs": [],
      "name": "getLatestTimeStamp",
      "outputs": [
        {
          "internalType": "uint256",
          "name": "",
          "type": "uint256"
        }
      ],
      "stateMutability": "view",
      "type": "function"
    },
    {
      "inputs": [],
      "name": "getNumWords",
      "outputs": [
        {
          "internalType": "uint256",
          "name": "",
          "type": "uint256"
        }
      ],
      "stateMutability": "pure",
      "type": "function"
    },
    {
      "inputs": [],
      "name": "getNumberOfPlayers",
      "outputs": [
        {
          "internalType": "uint256",
          "name": "",
          "type": "uint256"
        }
      ],
      "stateMutability": "view",
      "type": "function"
    },
    {
      "inputs": [
        {
          "internalType": "uint256",
          "name": "index",
          "type": "uint256"
        }
      ],
      "name": "getPlayers",
      "outputs": [
        {
          "internalType": "address",
          "name": "",
          "type": "address"
        }
      ],
      "stateMutability": "view",
      "type": "function"
    },
    {
      "inputs": [],
      "name": "getRaffleState",
      "outputs": [
        {
          "internalType": "enum Raffle.RaffleState",
          "name": "",
          "type": "uint8"
        }
      ],
      "stateMutability": "view",
      "type": "function"
    },
    {
      "inputs": [],
      "name": "getRecentWinner",
      "outputs": [
        {
          "internalType": "address",
          "name": "",
          "type": "address"
        }
      ],
      "stateMutability": "view",
      "type": "function"
    },
    {
      "inputs": [],
      "name": "getRequestConfirmations",
      "outputs": [
        {
          "internalType": "uint256",
          "name": "",
          "type": "uint256"
        }
      ],
      "stateMutability": "pure",
      "type": "function"
    },
    {
      "inputs": [
        {
          "internalType": "bytes",
          "name": "",
          "type": "bytes"
        }
      ],
      "name": "performUpkeep",
      "outputs": [],
      "stateMutability": "nonpayable",
      "type": "function"
    },
    {
      "inputs": [
        {
          "internalType": "uint256",
          "name": "requestId",
          "type": "uint256"
        },
        {
          "internalType": "uint256[]",
          "name": "randomWords",
          "type": "uint256[]"
        }
      ],
      "name": "rawFulfillRandomWords",
      "outputs": [],
      "stateMutability": "nonpayable",
      "type": "function"
    }
  ],
  "bytecode": "0x6101606040523480156200001257600080fd5b50604051620017bd380380620017bd8339818101604052810190620000389190620002a0565b858073ffffffffffffffffffffffffffffffffffffffff1660808173ffffffffffffffffffffffffffffffffffffffff1660601b81525050508460a081815250508573ffffffffffffffffffffffffffffffffffffffff1660c08173ffffffffffffffffffffffffffffffffffffffff1660601b815250508360e081815250508267ffffffffffffffff166101008167ffffffffffffffff1660c01b815250508163ffffffff166101208163ffffffff1660e01b815250506000600160146101000a81548160ff021916908360018111156200011957620001186200033c565b5b0217905550426002819055508061014081815250505050505050506200036b565b600080fd5b600073ffffffffffffffffffffffffffffffffffffffff82169050919050565b60006200016c826200013f565b9050919050565b6200017e816200015f565b81146200018a57600080fd5b50565b6000815190506200019e8162000173565b92915050565b6000819050919050565b620001b981620001a4565b8114620001c557600080fd5b50565b600081519050620001d981620001ae565b92915050565b6000819050919050565b620001f481620001df565b81146200020057600080fd5b50565b6000815190506200021481620001e9565b92915050565b600067ffffffffffffffff82169050919050565b62000239816200021a565b81146200024557600080fd5b50565b60008151905062000259816200022e565b92915050565b600063ffffffff82169050919050565b6200027a816200025f565b81146200028657600080fd5b50565b6000815190506200029a816200026f565b92915050565b60008060008060008060c08789031215620002c057620002bf6200013a565b5b6000620002d089828a016200018d565b9650506020620002e389828a01620001c8565b9550506040620002f689828a0162000203565b94505060606200030989828a0162000248565b93505060806200031c89828a0162000289565b92505060a06200032f89828a01620001c8565b9150509295509295509295565b7f4e487b7100000000000000000000000000000000000000000000000000000000600052602160045260246000fd5b60805160601c60a05160c05160601c60e0516101005160c01c6101205160e01c610140516113dd620003e060003960006107f70152600061065f0152600061063c0152600061061b015260006105df0152600081816102b401526103b10152600081816102f1015261034501526113dd6000f3fe6080604052600436106100a75760003560e01c8063460e204911610064578063460e204914610189578063473f1ddc146101c657806353a2c19a146101f15780635f1b0fd81461021c5780636e04ff0d14610247578063fd6673f514610285576100a7565b806309bc33a7146100ac578063115cbaf5146100d75780631fe543e3146101025780632cfcc5391461012b578063320229eb146101355780634585e33b14610160575b600080fd5b3480156100b857600080fd5b506100c16102b0565b6040516100ce9190610b5e565b60405180910390f35b3480156100e357600080fd5b506100ec6102d8565b6040516100f99190610bf0565b60405180910390f35b34801561010e57600080fd5b5061012960048036038101906101249190610da4565b6102ef565b005b6101336103af565b005b34801561014157600080fd5b5061014a61051e565b6040516101579190610b5e565b60405180910390f35b34801561016c57600080fd5b5061018760048036038101906101829190610e5b565b610528565b005b34801561019557600080fd5b506101b060048036038101906101ab9190610ea8565b610727565b6040516101bd9190610f16565b60405180910390f35b3480156101d257600080fd5b506101db61076e565b6040516101e89190610f16565b60405180910390f35b3480156101fd57600080fd5b50610206610798565b6040516102139190610b5e565b60405180910390f35b34801561022857600080fd5b506102316107a7565b60405161023e9190610b5e565b60405180910390f35b34801561025357600080fd5b5061026e60048036038101906102699190610fe6565b6107b4565b60405161027c9291906110d2565b60405180910390f35b34801561029157600080fd5b5061029a610861565b6040516102a79190610b5e565b60405180910390f35b60007f0000000000000000000000000000000000000000000000000000000000000000905090565b6000600160149054906101000a900460ff16905090565b7f000000000000000000000000000000000000000000000000000000000000000073ffffffffffffffffffffffffffffffffffffffff163373ffffffffffffffffffffffffffffffffffffffff16146103a157337f00000000000000000000000000000000000000000000000000000000000000006040517f1cf993f4000000000000000000000000000000000000000000000000000000008152600401610398929190611102565b60405180910390fd5b6103ab828261086d565b5050565b7f0000000000000000000000000000000000000000000000000000000000000000341015610409576040517f74938f2700000000000000000000000000000000000000000000000000000000815260040160405180910390fd5b6000600181111561041d5761041c610b79565b5b600160149054906101000a900460ff16600181111561043f5761043e610b79565b5b14610476576040517f1425571c00000000000000000000000000000000000000000000000000000000815260040160405180910390fd5b6000339080600181540180825580915050600190039060005260206000200160009091909190916101000a81548173ffffffffffffffffffffffffffffffffffffffff021916908373ffffffffffffffffffffffffffffffffffffffff1602179055503373ffffffffffffffffffffffffffffffffffffffff167f0805e1d667bddb8a95f0f09880cf94f403fb596ce79928d9f29b74203ba284d460405160405180910390a2565b6000600254905090565b6000610542604051806020016040528060008152506107b4565b509050806105b15747600080549050600160149054906101000a900460ff16600181111561057357610572610b79565b5b6040517fe059521b0000000000000000000000000000000000000000000000000000000081526004016105a89392919061112b565b60405180910390fd5b60018060146101000a81548160ff021916908360018111156105d6576105d5610b79565b5b021790555060007f000000000000000000000000000000000000000000000000000000000000000073ffffffffffffffffffffffffffffffffffffffff16635d3b1d307f00000000000000000000000000000000000000000000000000000000000000007f000000000000000000000000000000000000000000000000000000000000000060037f000000000000000000000000000000000000000000000000000000000000000060016040518663ffffffff1660e01b81526004016106a09594939291906111da565b602060405180830381600087803b1580156106ba57600080fd5b505af11580156106ce573d6000803e3d6000fd5b505050506040513d601f19601f820116820180604052508101906106f29190611242565b9050807fcd6e45c8998311cab7e9d4385596cac867e20a0587194b954fa3a731c93ce78b60405160405180910390a250505050565b600080828154811061073c5761073b61126f565b5b9060005260206000200160009054906101000a900473ffffffffffffffffffffffffffffffffffffffff169050919050565b6000600160009054906101000a900473ffffffffffffffffffffffffffffffffffffffff16905090565b6000600163ffffffff16905090565b6000600361ffff16905090565b600060606000600160149054906101000a900460ff1660018111156107dc576107db610b79565b5b600060018111156107f0576107ef610b79565b5b14905060007f00000000000000000000000000000000000000000000000000000000000000006002544261082491906112cd565b119050600080600080549050119050600080471190508380156108445750825b801561084d5750815b80156108565750805b955050505050915091565b60008080549050905090565b60008080549050826000815181106108885761088761126f565b5b602002602001015161089a9190611330565b905060008082815481106108b1576108b061126f565b5b9060005260206000200160009054906101000a900473ffffffffffffffffffffffffffffffffffffffff16905080600160006101000a81548173ffffffffffffffffffffffffffffffffffffffff021916908373ffffffffffffffffffffffffffffffffffffffff1602179055506000600160146101000a81548160ff0219169083600181111561094557610944610b79565b5b021790555042600281905550600067ffffffffffffffff81111561096c5761096b610c61565b5b60405190808252806020026020018201604052801561099a5781602001602082028036833780820191505090505b50600090805190602001906109b0929190610a9e565b5060008173ffffffffffffffffffffffffffffffffffffffff16476040516109d790611392565b60006040518083038185875af1925050503d8060008114610a14576040519150601f19603f3d011682016040523d82523d6000602084013e610a19565b606091505b5050905080610a54576040517fa1d04b3900000000000000000000000000000000000000000000000000000000815260040160405180910390fd5b8173ffffffffffffffffffffffffffffffffffffffff167f5b690ec4a06fe979403046eaeea5b3ce38524683c3001f662c8b5a829632f7df60405160405180910390a25050505050565b828054828255906000526020600020908101928215610b17579160200282015b82811115610b165782518260006101000a81548173ffffffffffffffffffffffffffffffffffffffff021916908373ffffffffffffffffffffffffffffffffffffffff16021790555091602001919060010190610abe565b5b509050610b249190610b28565b5090565b5b80821115610b41576000816000905550600101610b29565b5090565b6000819050919050565b610b5881610b45565b82525050565b6000602082019050610b736000830184610b4f565b92915050565b7f4e487b7100000000000000000000000000000000000000000000000000000000600052602160045260246000fd5b60028110610bb957610bb8610b79565b5b50565b6000819050610bca82610ba8565b919050565b6000610bda82610bbc565b9050919050565b610bea81610bcf565b82525050565b6000602082019050610c056000830184610be1565b92915050565b6000604051905090565b600080fd5b600080fd5b610c2881610b45565b8114610c3357600080fd5b50565b600081359050610c4581610c1f565b92915050565b600080fd5b6000601f19601f8301169050919050565b7f4e487b7100000000000000000000000000000000000000000000000000000000600052604160045260246000fd5b610c9982610c50565b810181811067ffffffffffffffff82111715610cb857610cb7610c61565b5b80604052505050565b6000610ccb610c0b565b9050610cd78282610c90565b919050565b600067ffffffffffffffff821115610cf757610cf6610c61565b5b602082029050602081019050919050565b600080fd5b6000610d20610d1b84610cdc565b610cc1565b90508083825260208201905060208402830185811115610d4357610d42610d08565b5b835b81811015610d6c5780610d588882610c36565b845260208401935050602081019050610d45565b5050509392505050565b600082601f830112610d8b57610d8a610c4b565b5b8135610d9b848260208601610d0d565b91505092915050565b60008060408385031215610dbb57610dba610c15565b5b6000610dc985828601610c36565b925050602083013567ffffffffffffffff811115610dea57610de9610c1a565b5b610df685828601610d76565b9150509250929050565b600080fd5b60008083601f840112610e1b57610e1a610c4b565b5b8235905067ffffffffffffffff811115610e3857610e37610e00565b5b602083019150836001820283011115610e5457610e53610d08565b5b9250929050565b60008060208385031215610e7257610e71610c15565b5b600083013567ffffffffffffffff811115610e9057610e8f610c1a565b5b610e9c85828601610e05565b92509250509250929050565b600060208284031215610ebe57610ebd610c15565b5b6000610ecc84828501610c36565b91505092915050565b600073ffffffffffffffffffffffffffffffffffffffff82169050919050565b6000610f0082610ed5565b9050919050565b610f1081610ef5565b82525050565b6000602082019050610f2b6000830184610f07565b92915050565b600080fd5b600067ffffffffffffffff821115610f5157610f50610c61565b5b610f5a82610c50565b9050602081019050919050565b82818337600083830152505050565b6000610f89610f8484610f36565b610cc1565b905082815260208101848484011115610fa557610fa4610f31565b5b610fb0848285610f67565b509392505050565b600082601f830112610fcd57610fcc610c4b565b5b8135610fdd848260208601610f76565b91505092915050565b600060208284031215610ffc57610ffb610c15565b5b600082013567ffffffffffffffff81111561101a57611019610c1a565b5b61102684828501610fb8565b91505092915050565b60008115159050919050565b6110448161102f565b82525050565b600081519050919050565b600082825260208201905092915050565b60005b83811015611084578082015181840152602081019050611069565b83811115611093576000848401525b50505050565b60006110a48261104a565b6110ae8185611055565b93506110be818560208601611066565b6110c781610c50565b840191505092915050565b60006040820190506110e7600083018561103b565b81810360208301526110f98184611099565b90509392505050565b60006040820190506111176000830185610f07565b6111246020830184610f07565b9392505050565b60006060820190506111406000830186610b4f565b61114d6020830185610b4f565b61115a6040830184610b4f565b949350505050565b6000819050919050565b61117581611162565b82525050565b600067ffffffffffffffff82169050919050565b6111988161117b565b82525050565b600061ffff82169050919050565b6111b58161119e565b82525050565b600063ffffffff82169050919050565b6111d4816111bb565b82525050565b600060a0820190506111ef600083018861116c565b6111fc602083018761118f565b61120960408301866111ac565b61121660608301856111cb565b61122360808301846111cb565b9695505050505050565b60008151905061123c81610c1f565b92915050565b60006020828403121561125857611257610c15565b5b60006112668482850161122d565b91505092915050565b7f4e487b7100000000000000000000000000000000000000000000000000000000600052603260045260246000fd5b7f4e487b7100000000000000000000000000000000000000000000000000000000600052601160045260246000fd5b60006112d882610b45565b91506112e383610b45565b9250828210156112f6576112f561129e565b5b828203905092915050565b7f4e487b7100000000000000000000000000000000000000000000000000000000600052601260045260246000fd5b600061133b82610b45565b915061134683610b45565b92508261135657611355611301565b5b828206905092915050565b600081905092915050565b50565b600061137c600083611361565b91506113878261136c565b600082019050919050565b600061139d8261136f565b915081905091905056fea26469706673582212200d711b37885dc77cd8393125329c4e6e8030ed7f90943d29216dfb718e81a1b364736f6c63430008080033",
  "linkReferences": {},
  "deployedLinkReferences": {}
}